{
  "contractName": "VenovaCrowdsale",
  "abi": [
    {
      "constant": true,
      "inputs": [],
      "name": "hasClosed",
      "outputs": [
        {
          "name": "",
          "type": "bool"
        }
      ],
      "payable": false,
      "stateMutability": "view",
      "type": "function"
    },
    {
      "constant": true,
      "inputs": [],
      "name": "rate",
      "outputs": [
        {
          "name": "",
          "type": "uint256"
        }
      ],
      "payable": false,
      "stateMutability": "view",
      "type": "function"
    },
    {
      "constant": true,
      "inputs": [],
      "name": "cap",
      "outputs": [
        {
          "name": "",
          "type": "uint256"
        }
      ],
      "payable": false,
      "stateMutability": "view",
      "type": "function"
    },
    {
      "constant": true,
      "inputs": [],
      "name": "weiRaised",
      "outputs": [
        {
          "name": "",
          "type": "uint256"
        }
      ],
      "payable": false,
      "stateMutability": "view",
      "type": "function"
    },
    {
      "constant": true,
      "inputs": [
        {
          "name": "",
          "type": "address"
        }
      ],
      "name": "contributions",
      "outputs": [
        {
          "name": "",
          "type": "uint256"
        }
      ],
      "payable": false,
      "stateMutability": "view",
      "type": "function"
    },
    {
      "constant": true,
      "inputs": [],
      "name": "closingTime",
      "outputs": [
        {
          "name": "",
          "type": "uint256"
        }
      ],
      "payable": false,
      "stateMutability": "view",
      "type": "function"
    },
    {
      "constant": true,
      "inputs": [],
      "name": "capReached",
      "outputs": [
        {
          "name": "",
          "type": "bool"
        }
      ],
      "payable": false,
      "stateMutability": "view",
      "type": "function"
    },
    {
      "constant": true,
      "inputs": [],
      "name": "wallet",
      "outputs": [
        {
          "name": "",
          "type": "address"
        }
      ],
      "payable": false,
      "stateMutability": "view",
      "type": "function"
    },
    {
      "constant": true,
      "inputs": [],
      "name": "investorMinCap",
      "outputs": [
        {
          "name": "",
          "type": "uint256"
        }
      ],
      "payable": false,
      "stateMutability": "view",
      "type": "function"
    },
    {
      "constant": true,
      "inputs": [],
      "name": "openingTime",
      "outputs": [
        {
          "name": "",
          "type": "uint256"
        }
      ],
      "payable": false,
      "stateMutability": "view",
      "type": "function"
    },
    {
      "constant": false,
      "inputs": [
        {
          "name": "_beneficiary",
          "type": "address"
        }
      ],
      "name": "buyTokens",
      "outputs": [],
      "payable": true,
      "stateMutability": "payable",
      "type": "function"
    },
    {
      "constant": true,
      "inputs": [],
      "name": "investorHardCap",
      "outputs": [
        {
          "name": "",
          "type": "uint256"
        }
      ],
      "payable": false,
      "stateMutability": "view",
      "type": "function"
    },
    {
      "constant": true,
      "inputs": [],
      "name": "token",
      "outputs": [
        {
          "name": "",
          "type": "address"
        }
      ],
      "payable": false,
      "stateMutability": "view",
      "type": "function"
    },
    {
      "inputs": [
        {
          "name": "_rate",
          "type": "uint256"
        },
        {
          "name": "_wallet",
          "type": "address"
        },
        {
          "name": "_token",
          "type": "address"
        },
        {
          "name": "_openingTime",
          "type": "uint256"
        },
        {
          "name": "_closingTime",
          "type": "uint256"
        },
        {
          "name": "_cap",
          "type": "uint256"
        }
      ],
      "payable": false,
      "stateMutability": "nonpayable",
      "type": "constructor"
    },
    {
      "payable": true,
      "stateMutability": "payable",
      "type": "fallback"
    },
    {
      "anonymous": false,
      "inputs": [
        {
          "indexed": true,
          "name": "purchaser",
          "type": "address"
        },
        {
          "indexed": true,
          "name": "beneficiary",
          "type": "address"
        },
        {
          "indexed": false,
          "name": "value",
          "type": "uint256"
        },
        {
          "indexed": false,
          "name": "amount",
          "type": "uint256"
        }
      ],
      "name": "TokenPurchase",
      "type": "event"
    }
  ],
  "bytecode": "0x608060405266071afd498d0000600755670de0b6b3a764000060085534801561002757600080fd5b5060405160c08061063683398101604090815281516020830151918301516060840151608085015160a090950151929491929091908083838888886000831161006f57600080fd5b600160a060020a038216151561008457600080fd5b600160a060020a038116151561009957600080fd5b60029290925560018054600160a060020a03928316600160a060020a03199182161790915560008054929093169116179055428210156100d857600080fd5b818110156100e557600080fd5b600491909155600555600081116100fb57600080fd5b600655505050505050610523806101136000396000f3006080604052600436106100c45763ffffffff7c01000000000000000000000000000000000000000000000000000000006000350416631515bc2b81146100cf5780632c4e722e146100f8578063355274ea1461011f5780634042b66f1461013457806342e94c90146101495780634b6753bc1461016a5780634f9359451461017f578063521eb27314610194578063b25d7f54146101c5578063b7a8807c146101da578063ec8ac4d8146101ef578063ed5db87414610203578063fc0c546a14610218575b6100cd3361022d565b005b3480156100db57600080fd5b506100e46102cf565b604080519115158252519081900360200190f35b34801561010457600080fd5b5061010d6102d7565b60408051918252519081900360200190f35b34801561012b57600080fd5b5061010d6102dd565b34801561014057600080fd5b5061010d6102e3565b34801561015557600080fd5b5061010d600160a060020a03600435166102e9565b34801561017657600080fd5b5061010d6102fb565b34801561018b57600080fd5b506100e4610301565b3480156101a057600080fd5b506101a961030c565b60408051600160a060020a039092168252519081900360200190f35b3480156101d157600080fd5b5061010d61031b565b3480156101e657600080fd5b5061010d610321565b6100cd600160a060020a036004351661022d565b34801561020f57600080fd5b5061010d610327565b34801561022457600080fd5b506101a961032d565b34600061023a838361033c565b6102438261036b565b600354909150610259908363ffffffff61038816565b6003556102668382610395565b60408051838152602081018390528151600160a060020a0386169233927f623b3804fa71d67900d064613da8f94b9617215ee90799290593e1745087ad18929081900390910190a36102b88383610367565b6102c061039f565b6102ca8383610367565b505050565b600554421190565b60025481565b60065481565b60035481565b60096020526000908152604090205481565b60055481565b600654600354101590565b600154600160a060020a031681565b60075481565b60045481565b60085481565b600054600160a060020a031681565b61034682826103db565b60065460035461035c908363ffffffff61038816565b111561036757600080fd5b5050565b60006103826002548361040490919063ffffffff16565b92915050565b8181018281101561038257fe5b610367828261042d565b600154604051600160a060020a03909116903480156108fc02916000818181858888f193505050501580156103d8573d6000803e3d6000fd5b50565b60045442101580156103ef57506005544211155b15156103fa57600080fd5b61036782826104d6565b600082151561041557506000610382565b5081810281838281151561042557fe5b041461038257fe5b60008054604080517f40c10f19000000000000000000000000000000000000000000000000000000008152600160a060020a03868116600483015260248201869052915191909216926340c10f1992604480820193602093909283900390910190829087803b15801561049f57600080fd5b505af11580156104b3573d6000803e3d6000fd5b505050506040513d60208110156104c957600080fd5b5051151561036757600080fd5b600160a060020a03821615156104eb57600080fd5b80151561036757600080fd00a165627a7a72305820e99f2e15e8b7c0d7383b60bae5a180c76a9cc44aacda13700bc59156741dfa4b0029",
  "source": "pragma solidity 0.4.24;\nimport \"openzeppelin-solidity/contracts/crowdsale/Crowdsale.sol\";\nimport \"openzeppelin-solidity/contracts/crowdsale/validation/TimedCrowdsale.sol\";\nimport \"openzeppelin-solidity/contracts/crowdsale/validation/CappedCrowdsale.sol\";\nimport \"openzeppelin-solidity/contracts/crowdsale/emission/MintedCrowdsale.sol\";\nimport \"openzeppelin-solidity/contracts/token/ERC20/ERC20.sol\";\n\n    contract VenovaCrowdsale is Crowdsale, TimedCrowdsale, CappedCrowdsale, MintedCrowdsale {\n    uint256 public investorMinCap = 2000000000000000; // 0.002 ether\n    uint256 public investorHardCap = 1000000000000000000; // 1 ether\n    mapping(address => uint256) public contributions;\n\n    constructor\n    (\n        uint256 _rate,\n        address _wallet,\n        ERC20 _token,\n        uint256 _openingTime,\n        uint256 _closingTime,\n        uint256 _cap\n    ) \n        Crowdsale(_rate, _wallet, _token)\n        TimedCrowdsale(_openingTime, _closingTime)\n        CappedCrowdsale(_cap)\n        public\n    {\n\n    }\n\n  /**\n   * @dev enables token transfers, called when owner calls finalize()\n  */\n  // function finalization() internal {\n  //   if(goalReached()) {\n  //     MintableToken _mintableToken = MintableToken(token);\n  //     uint256 _alreadyMinted = _mintableToken.totalSupply();\n  //     uint256 _finalTotalSupply = _alreadyMinted.div(tokenSalePercentage).mul(100);\n  //     foundersTimelock   = new TokenTimelock(token, foundersFund, releaseTime);\n  //     foundationTimelock = new TokenTimelock(token, foundationFund, releaseTime);\n  //     partnersTimelock   = new TokenTimelock(token, partnersFund, releaseTime);\n\n  //     _mintableToken.mint(address(foundersTimelock),   _finalTotalSupply.mul(foundersPercentage).div(100));\n  //     _mintableToken.mint(address(foundationTimelock), _finalTotalSupply.mul(foundationPercentage).div(100));\n  //     _mintableToken.mint(address(partnersTimelock),   _finalTotalSupply.mul(partnersPercentage).div(100));\n\n  //     _mintableToken.finishMinting();\n  //     // Unpause the token\n  //     PausableToken _pausableToken = PausableToken(token);\n  //     _pausableToken.unpause();\n  //     _pausableToken.transferOwnership(wallet);\n  //   }\n\n  //   super.finalization();\n  // }\n}",
  "sourcePath": "/home/hero/projects/smart contract(work perfect)/venova(work perfect)/contracts/VenovaCrowdsale.sol",
  "compiler": {
    "name": "solc",
    "version": "0.4.24+commit.e67f0147.Emscripten.clang"
  },
  "schemaVersion": "2.0.1",
  "updatedAt": "2018-12-19T22:38:27.327Z"
}