{
  "contractName": "VenovasCrowdsale",
  "abi": [
    {
      "constant": true,
      "inputs": [],
      "name": "hasClosed",
      "outputs": [
        {
          "name": "",
          "type": "bool"
        }
      ],
      "payable": false,
      "stateMutability": "view",
      "type": "function"
    },
    {
      "constant": true,
      "inputs": [],
      "name": "rate",
      "outputs": [
        {
          "name": "",
          "type": "uint256"
        }
      ],
      "payable": false,
      "stateMutability": "view",
      "type": "function"
    },
    {
      "constant": true,
      "inputs": [],
      "name": "cap",
      "outputs": [
        {
          "name": "",
          "type": "uint256"
        }
      ],
      "payable": false,
      "stateMutability": "view",
      "type": "function"
    },
    {
      "constant": true,
      "inputs": [],
      "name": "weiRaised",
      "outputs": [
        {
          "name": "",
          "type": "uint256"
        }
      ],
      "payable": false,
      "stateMutability": "view",
      "type": "function"
    },
    {
      "constant": true,
      "inputs": [],
      "name": "closingTime",
      "outputs": [
        {
          "name": "",
          "type": "uint256"
        }
      ],
      "payable": false,
      "stateMutability": "view",
      "type": "function"
    },
    {
      "constant": true,
      "inputs": [],
      "name": "capReached",
      "outputs": [
        {
          "name": "",
          "type": "bool"
        }
      ],
      "payable": false,
      "stateMutability": "view",
      "type": "function"
    },
    {
      "constant": true,
      "inputs": [],
      "name": "wallet",
      "outputs": [
        {
          "name": "",
          "type": "address"
        }
      ],
      "payable": false,
      "stateMutability": "view",
      "type": "function"
    },
    {
      "constant": true,
      "inputs": [],
      "name": "isFinalized",
      "outputs": [
        {
          "name": "",
          "type": "bool"
        }
      ],
      "payable": false,
      "stateMutability": "view",
      "type": "function"
    },
    {
      "constant": true,
      "inputs": [],
      "name": "openingTime",
      "outputs": [
        {
          "name": "",
          "type": "uint256"
        }
      ],
      "payable": false,
      "stateMutability": "view",
      "type": "function"
    },
    {
      "constant": false,
      "inputs": [
        {
          "name": "_beneficiary",
          "type": "address"
        }
      ],
      "name": "buyTokens",
      "outputs": [],
      "payable": true,
      "stateMutability": "payable",
      "type": "function"
    },
    {
      "constant": true,
      "inputs": [],
      "name": "token",
      "outputs": [
        {
          "name": "",
          "type": "address"
        }
      ],
      "payable": false,
      "stateMutability": "view",
      "type": "function"
    },
    {
      "inputs": [
        {
          "name": "_rate",
          "type": "uint256"
        },
        {
          "name": "_wallet",
          "type": "address"
        },
        {
          "name": "_token",
          "type": "address"
        },
        {
          "name": "_openingTime",
          "type": "uint256"
        },
        {
          "name": "_closingTime",
          "type": "uint256"
        },
        {
          "name": "_cap",
          "type": "uint256"
        }
      ],
      "payable": false,
      "stateMutability": "nonpayable",
      "type": "constructor"
    },
    {
      "payable": true,
      "stateMutability": "payable",
      "type": "fallback"
    },
    {
      "anonymous": false,
      "inputs": [],
      "name": "Finalized",
      "type": "event"
    },
    {
      "anonymous": false,
      "inputs": [
        {
          "indexed": true,
          "name": "purchaser",
          "type": "address"
        },
        {
          "indexed": true,
          "name": "beneficiary",
          "type": "address"
        },
        {
          "indexed": false,
          "name": "value",
          "type": "uint256"
        },
        {
          "indexed": false,
          "name": "amount",
          "type": "uint256"
        }
      ],
      "name": "TokenPurchase",
      "type": "event"
    }
  ],
  "bytecode": "0x60806040526007805460ff1916905534801561001a57600080fd5b5060405160c0806105c883398101604090815281516020830151918301516060840151608085015160a090950151929491929091908083838888886000831161006257600080fd5b600160a060020a038216151561007757600080fd5b600160a060020a038116151561008c57600080fd5b60029290925560018054600160a060020a03928316600160a060020a03199182161790915560008054929093169116179055428210156100cb57600080fd5b818110156100d857600080fd5b600491909155600555600081116100ee57600080fd5b6006555050505050506104c2806101066000396000f3006080604052600436106100ae5763ffffffff7c01000000000000000000000000000000000000000000000000000000006000350416631515bc2b81146100b95780632c4e722e146100e2578063355274ea146101095780634042b66f1461011e5780634b6753bc146101335780634f93594514610148578063521eb2731461015d5780638d4e40831461018e578063b7a8807c146101a3578063ec8ac4d8146101b8578063fc0c546a146101cc575b6100b7336101e1565b005b3480156100c557600080fd5b506100ce610283565b604080519115158252519081900360200190f35b3480156100ee57600080fd5b506100f761028b565b60408051918252519081900360200190f35b34801561011557600080fd5b506100f7610291565b34801561012a57600080fd5b506100f7610297565b34801561013f57600080fd5b506100f761029d565b34801561015457600080fd5b506100ce6102a3565b34801561016957600080fd5b506101726102ae565b60408051600160a060020a039092168252519081900360200190f35b34801561019a57600080fd5b506100ce6102bd565b3480156101af57600080fd5b506100f76102c6565b6100b7600160a060020a03600435166101e1565b3480156101d857600080fd5b506101726102cc565b3460006101ee83836102db565b6101f78261030a565b60035490915061020d908363ffffffff61032716565b60035561021a8382610334565b60408051838152602081018390528151600160a060020a0386169233927f623b3804fa71d67900d064613da8f94b9617215ee90799290593e1745087ad18929081900390910190a361026c8383610306565b61027461033e565b61027e8383610306565b505050565b600554421190565b60025481565b60065481565b60035481565b60055481565b600654600354101590565b600154600160a060020a031681565b60075460ff1681565b60045481565b600054600160a060020a031681565b6102e5828261037a565b6006546003546102fb908363ffffffff61032716565b111561030657600080fd5b5050565b6000610321600254836103a390919063ffffffff16565b92915050565b8181018281101561032157fe5b61030682826103cc565b600154604051600160a060020a03909116903480156108fc02916000818181858888f19350505050158015610377573d6000803e3d6000fd5b50565b600454421015801561038e57506005544211155b151561039957600080fd5b6103068282610475565b60008215156103b457506000610321565b508181028183828115156103c457fe5b041461032157fe5b60008054604080517f40c10f19000000000000000000000000000000000000000000000000000000008152600160a060020a03868116600483015260248201869052915191909216926340c10f1992604480820193602093909283900390910190829087803b15801561043e57600080fd5b505af1158015610452573d6000803e3d6000fd5b505050506040513d602081101561046857600080fd5b5051151561030657600080fd5b600160a060020a038216151561048a57600080fd5b80151561030657600080fd00a165627a7a723058209f053ba5170649d320d43b85c59610695bb9b156f3017ba2e1a461c54bd54a880029",
  "source": "pragma solidity 0.4.24;\n\nimport \"openzeppelin-solidity/contracts/crowdsale/Crowdsale.sol\";\nimport \"openzeppelin-solidity/contracts/crowdsale/validation/TimedCrowdsale.sol\";\nimport \"openzeppelin-solidity/contracts/crowdsale/validation/CappedCrowdsale.sol\";\nimport \"openzeppelin-solidity/contracts/crowdsale/emission/MintedCrowdsale.sol\";\nimport \"openzeppelin-solidity/contracts/token/ERC20/ERC20.sol\";\n\n\n\ncontract VenovasCrowdsale is Crowdsale, TimedCrowdsale, CappedCrowdsale, MintedCrowdsale {\n    bool public isFinalized = false;\n    event Finalized();\n    constructor\n    (\n        uint256 _rate,\n        address _wallet,\n        ERC20 _token,\n        uint256 _openingTime,\n        uint256 _closingTime,\n        uint256 _cap\n    ) \n        Crowdsale(_rate, _wallet, _token)\n        TimedCrowdsale(_openingTime, _closingTime)\n        CappedCrowdsale(_cap)\n        public\n    {\n\n    }\n\n   \n\n}",
  "sourcePath": "/home/hero/projects/smart contract(work perfect)/venova(work perfect)/contracts/VenovaCrowdsale.sol",
  "compiler": {
    "name": "solc",
    "version": "0.4.24+commit.e67f0147.Emscripten.clang"
  },
  "schemaVersion": "2.0.1",
  "updatedAt": "2018-12-19T17:27:35.313Z"
}