{
  "contractName": "VenovaCrowdsale",
  "abi": [
    {
      "constant": true,
      "inputs": [],
      "name": "hasClosed",
      "outputs": [
        {
          "name": "",
          "type": "bool"
        }
      ],
      "payable": false,
      "stateMutability": "view",
      "type": "function"
    },
    {
      "constant": true,
      "inputs": [],
      "name": "rate",
      "outputs": [
        {
          "name": "",
          "type": "uint256"
        }
      ],
      "payable": false,
      "stateMutability": "view",
      "type": "function"
    },
    {
      "constant": true,
      "inputs": [],
      "name": "cap",
      "outputs": [
        {
          "name": "",
          "type": "uint256"
        }
      ],
      "payable": false,
      "stateMutability": "view",
      "type": "function"
    },
    {
      "constant": true,
      "inputs": [],
      "name": "weiRaised",
      "outputs": [
        {
          "name": "",
          "type": "uint256"
        }
      ],
      "payable": false,
      "stateMutability": "view",
      "type": "function"
    },
    {
      "constant": true,
      "inputs": [
        {
          "name": "",
          "type": "address"
        }
      ],
      "name": "contributions",
      "outputs": [
        {
          "name": "",
          "type": "uint256"
        }
      ],
      "payable": false,
      "stateMutability": "view",
      "type": "function"
    },
    {
      "constant": true,
      "inputs": [],
      "name": "closingTime",
      "outputs": [
        {
          "name": "",
          "type": "uint256"
        }
      ],
      "payable": false,
      "stateMutability": "view",
      "type": "function"
    },
    {
      "constant": true,
      "inputs": [],
      "name": "capReached",
      "outputs": [
        {
          "name": "",
          "type": "bool"
        }
      ],
      "payable": false,
      "stateMutability": "view",
      "type": "function"
    },
    {
      "constant": true,
      "inputs": [],
      "name": "wallet",
      "outputs": [
        {
          "name": "",
          "type": "address"
        }
      ],
      "payable": false,
      "stateMutability": "view",
      "type": "function"
    },
    {
      "constant": true,
      "inputs": [],
      "name": "investorMinCap",
      "outputs": [
        {
          "name": "",
          "type": "uint256"
        }
      ],
      "payable": false,
      "stateMutability": "view",
      "type": "function"
    },
    {
      "constant": true,
      "inputs": [],
      "name": "openingTime",
      "outputs": [
        {
          "name": "",
          "type": "uint256"
        }
      ],
      "payable": false,
      "stateMutability": "view",
      "type": "function"
    },
    {
      "constant": false,
      "inputs": [
        {
          "name": "_beneficiary",
          "type": "address"
        }
      ],
      "name": "buyTokens",
      "outputs": [],
      "payable": true,
      "stateMutability": "payable",
      "type": "function"
    },
    {
      "constant": true,
      "inputs": [],
      "name": "investorHardCap",
      "outputs": [
        {
          "name": "",
          "type": "uint256"
        }
      ],
      "payable": false,
      "stateMutability": "view",
      "type": "function"
    },
    {
      "constant": true,
      "inputs": [],
      "name": "token",
      "outputs": [
        {
          "name": "",
          "type": "address"
        }
      ],
      "payable": false,
      "stateMutability": "view",
      "type": "function"
    },
    {
      "inputs": [
        {
          "name": "_rate",
          "type": "uint256"
        },
        {
          "name": "_wallet",
          "type": "address"
        },
        {
          "name": "_token",
          "type": "address"
        },
        {
          "name": "_openingTime",
          "type": "uint256"
        },
        {
          "name": "_closingTime",
          "type": "uint256"
        },
        {
          "name": "_cap",
          "type": "uint256"
        }
      ],
      "payable": false,
      "stateMutability": "nonpayable",
      "type": "constructor"
    },
    {
      "payable": true,
      "stateMutability": "payable",
      "type": "fallback"
    },
    {
      "anonymous": false,
      "inputs": [
        {
          "indexed": true,
          "name": "purchaser",
          "type": "address"
        },
        {
          "indexed": true,
          "name": "beneficiary",
          "type": "address"
        },
        {
          "indexed": false,
          "name": "value",
          "type": "uint256"
        },
        {
          "indexed": false,
          "name": "amount",
          "type": "uint256"
        }
      ],
      "name": "TokenPurchase",
      "type": "event"
    },
    {
      "constant": true,
      "inputs": [
        {
          "name": "_beneficiary",
          "type": "address"
        }
      ],
      "name": "getUserContribution",
      "outputs": [
        {
          "name": "",
          "type": "uint256"
        }
      ],
      "payable": false,
      "stateMutability": "view",
      "type": "function"
    }
  ],
  "bytecode": "0x608060405266071afd498d0000600755670de0b6b3a764000060085534801561002757600080fd5b5060405160c0806106f283398101604090815281516020830151918301516060840151608085015160a090950151929491929091908083838888886000831161006f57600080fd5b600160a060020a038216151561008457600080fd5b600160a060020a038116151561009957600080fd5b60029290925560018054600160a060020a03928316600160a060020a03199182161790915560008054929093169116179055428210156100d857600080fd5b818110156100e557600080fd5b600491909155600555600081116100fb57600080fd5b6006555050505050506105df806101136000396000f3006080604052600436106100cf5763ffffffff7c01000000000000000000000000000000000000000000000000000000006000350416631515bc2b81146100da5780632c4e722e14610103578063355274ea1461012a5780634042b66f1461013f57806342e94c90146101545780634b6753bc146101755780634f9359451461018a578063521eb2731461019f578063b25d7f54146101d0578063b7a8807c146101e5578063bb8b2b47146101fa578063ec8ac4d81461021b578063ed5db8741461022f578063fc0c546a14610244575b6100d833610259565b005b3480156100e657600080fd5b506100ef6102fb565b604080519115158252519081900360200190f35b34801561010f57600080fd5b50610118610303565b60408051918252519081900360200190f35b34801561013657600080fd5b50610118610309565b34801561014b57600080fd5b5061011861030f565b34801561016057600080fd5b50610118600160a060020a0360043516610315565b34801561018157600080fd5b50610118610327565b34801561019657600080fd5b506100ef61032d565b3480156101ab57600080fd5b506101b4610338565b60408051600160a060020a039092168252519081900360200190f35b3480156101dc57600080fd5b50610118610347565b3480156101f157600080fd5b5061011861034d565b34801561020657600080fd5b50610118600160a060020a0360043516610353565b6100d8600160a060020a0360043516610259565b34801561023b57600080fd5b5061011861036e565b34801561025057600080fd5b506101b4610374565b3460006102668383610383565b61026f826103fd565b600354909150610285908363ffffffff61041a16565b6003556102928382610427565b60408051838152602081018390528151600160a060020a0386169233927f623b3804fa71d67900d064613da8f94b9617215ee90799290593e1745087ad18929081900390910190a36102e48383610431565b6102ec610435565b6102f68383610431565b505050565b600554421190565b60025481565b60065481565b60035481565b60096020526000908152604090205481565b60055481565b600654600354101590565b600154600160a060020a031681565b60075481565b60045481565b600160a060020a031660009081526009602052604090205490565b60085481565b600054600160a060020a031681565b6000806103908484610471565b600160a060020a03841660009081526009602052604090205491506103bb828463ffffffff61041a16565b905060075481101580156103d157506008548111155b15156103dc57600080fd5b600160a060020a039093166000908152600960205260409020929092555050565b60006104146002548361049c90919063ffffffff16565b92915050565b8181018281101561041457fe5b61043182826104c5565b5050565b600154604051600160a060020a03909116903480156108fc02916000818181858888f1935050505015801561046e573d6000803e3d6000fd5b50565b61047b828261056e565b600654600354610491908363ffffffff61041a16565b111561043157600080fd5b60008215156104ad57506000610414565b508181028183828115156104bd57fe5b041461041457fe5b60008054604080517f40c10f19000000000000000000000000000000000000000000000000000000008152600160a060020a03868116600483015260248201869052915191909216926340c10f1992604480820193602093909283900390910190829087803b15801561053757600080fd5b505af115801561054b573d6000803e3d6000fd5b505050506040513d602081101561056157600080fd5b5051151561043157600080fd5b600454421015801561058257506005544211155b151561058d57600080fd5b6104318282600160a060020a03821615156105a757600080fd5b80151561043157600080fd00a165627a7a72305820ae88a69530c99da549851b1b907bd6aa554fddfe914913b7cfdcf6b2eab2ca140029",
  "source": "pragma solidity 0.4.24;\nimport \"openzeppelin-solidity/contracts/crowdsale/Crowdsale.sol\";\nimport \"openzeppelin-solidity/contracts/crowdsale/validation/TimedCrowdsale.sol\";\nimport \"openzeppelin-solidity/contracts/crowdsale/validation/CappedCrowdsale.sol\";\nimport \"openzeppelin-solidity/contracts/crowdsale/emission/MintedCrowdsale.sol\";\nimport \"openzeppelin-solidity/contracts/token/ERC20/ERC20.sol\";\n\n    contract VenovaCrowdsale is Crowdsale, TimedCrowdsale, CappedCrowdsale, MintedCrowdsale {\n    uint256 public investorMinCap = 2000000000000000; // 0.002 ether\n    uint256 public investorHardCap = 1000000000000000000; // 1 ether\n    mapping(address => uint256) public contributions;\n\n    constructor\n    (\n        uint256 _rate,\n        address _wallet,\n        ERC20 _token,\n        uint256 _openingTime,\n        uint256 _closingTime,\n        uint256 _cap\n    ) \n        Crowdsale(_rate, _wallet, _token)\n        TimedCrowdsale(_openingTime, _closingTime)\n        CappedCrowdsale(_cap)\n        public\n    {\n\n    }\n\n     /**\n  * @dev Returns the amount contributed so far by a sepecific user.\n  * @param _beneficiary Address of contributor\n  * @return User contribution so far\n  */\n   function getUserContribution(address _beneficiary)\n     public view returns (uint256)\n   {\n     return contributions[_beneficiary];\n   }\n/**\n  * @dev Extend parent behavior requiring purchase to respect investor min/max funding cap.\n  * @param _beneficiary Token purchaser\n  * @param _weiAmount Amount of wei contributed\n  */\n  function _preValidatePurchase(\n    address _beneficiary,\n    uint256 _weiAmount\n  )\n    internal\n  {\n    super._preValidatePurchase(_beneficiary, _weiAmount);\n    uint256 _existingContribution = contributions[_beneficiary];\n    uint256 _newContribution = _existingContribution.add(_weiAmount);\n    require(_newContribution >= investorMinCap && _newContribution <= investorHardCap);\n    contributions[_beneficiary] = _newContribution;\n  }\n}",
  "sourcePath": "/home/hero/projects/smart contract(work perfect)/venova(work perfect)/contracts/VenovaCrowdsale.sol",
  "compiler": {
    "name": "solc",
    "version": "0.4.24+commit.e67f0147.Emscripten.clang"
  },
  "schemaVersion": "2.0.1",
  "updatedAt": "2018-12-19T20:07:19.477Z"
}